{
  "contractName": "CryptoCurrency",
  "abi": [
    {
      "inputs": [],
      "stateMutability": "nonpayable",
      "type": "constructor"
    },
    {
      "anonymous": false,
      "inputs": [
        {
          "indexed": true,
          "internalType": "address",
          "name": "ownerAddress",
          "type": "address"
        },
        {
          "indexed": true,
          "internalType": "address",
          "name": "spenderAddress",
          "type": "address"
        },
        {
          "indexed": false,
          "internalType": "uint256",
          "name": "amount",
          "type": "uint256"
        }
      ],
      "name": "AddressApproved",
      "type": "event"
    },
    {
      "anonymous": false,
      "inputs": [
        {
          "indexed": true,
          "internalType": "address",
          "name": "fromAddress",
          "type": "address"
        },
        {
          "indexed": true,
          "internalType": "address",
          "name": "toAddress",
          "type": "address"
        },
        {
          "indexed": false,
          "internalType": "uint256",
          "name": "amount",
          "type": "uint256"
        }
      ],
      "name": "BalanceTransfered",
      "type": "event"
    },
    {
      "inputs": [
        {
          "internalType": "address",
          "name": "",
          "type": "address"
        },
        {
          "internalType": "address",
          "name": "",
          "type": "address"
        }
      ],
      "name": "allowed",
      "outputs": [
        {
          "internalType": "uint256",
          "name": "",
          "type": "uint256"
        }
      ],
      "stateMutability": "view",
      "type": "function"
    },
    {
      "inputs": [],
      "name": "number",
      "outputs": [
        {
          "internalType": "uint256",
          "name": "",
          "type": "uint256"
        }
      ],
      "stateMutability": "view",
      "type": "function"
    },
    {
      "inputs": [],
      "name": "tokenName",
      "outputs": [
        {
          "internalType": "string",
          "name": "",
          "type": "string"
        }
      ],
      "stateMutability": "view",
      "type": "function"
    },
    {
      "inputs": [],
      "name": "tokenSupply",
      "outputs": [
        {
          "internalType": "uint256",
          "name": "",
          "type": "uint256"
        }
      ],
      "stateMutability": "view",
      "type": "function"
    },
    {
      "inputs": [],
      "name": "tokenSymbol",
      "outputs": [
        {
          "internalType": "string",
          "name": "",
          "type": "string"
        }
      ],
      "stateMutability": "view",
      "type": "function"
    },
    {
      "inputs": [
        {
          "internalType": "address",
          "name": "",
          "type": "address"
        }
      ],
      "name": "walletBalances",
      "outputs": [
        {
          "internalType": "uint256",
          "name": "",
          "type": "uint256"
        }
      ],
      "stateMutability": "view",
      "type": "function"
    },
    {
      "inputs": [
        {
          "internalType": "address",
          "name": "_owner",
          "type": "address"
        }
      ],
      "name": "calculateBalanceOf",
      "outputs": [
        {
          "internalType": "uint256",
          "name": "",
          "type": "uint256"
        }
      ],
      "stateMutability": "view",
      "type": "function"
    },
    {
      "inputs": [
        {
          "internalType": "address",
          "name": "_toAddress",
          "type": "address"
        },
        {
          "internalType": "uint256",
          "name": "_amount",
          "type": "uint256"
        }
      ],
      "name": "transferBalance",
      "outputs": [
        {
          "internalType": "bool",
          "name": "",
          "type": "bool"
        }
      ],
      "stateMutability": "nonpayable",
      "type": "function"
    },
    {
      "inputs": [
        {
          "internalType": "address",
          "name": "_fromAddress",
          "type": "address"
        },
        {
          "internalType": "address",
          "name": "_toAddress",
          "type": "address"
        },
        {
          "internalType": "uint256",
          "name": "_amount",
          "type": "uint256"
        }
      ],
      "name": "transfer",
      "outputs": [
        {
          "internalType": "bool",
          "name": "",
          "type": "bool"
        }
      ],
      "stateMutability": "nonpayable",
      "type": "function"
    },
    {
      "inputs": [
        {
          "internalType": "address",
          "name": "_spenderAddress",
          "type": "address"
        },
        {
          "internalType": "uint256",
          "name": "_amount",
          "type": "uint256"
        }
      ],
      "name": "approveAddress",
      "outputs": [
        {
          "internalType": "bool",
          "name": "",
          "type": "bool"
        }
      ],
      "stateMutability": "nonpayable",
      "type": "function"
    }
  ],
  "bytecode": "0x6080604052683635c9adc5dea000006001556040518060400160405280601081526020017f4775726b6172616e277320546f6b656e00000000000000000000000000000000815250600290805190602001906200005e9291906200010b565b506040518060400160405280600381526020017f474b43000000000000000000000000000000000000000000000000000000000081525060039080519060200190620000ac9291906200010b565b506012600455348015620000bf57600080fd5b506001546000803373ffffffffffffffffffffffffffffffffffffffff1673ffffffffffffffffffffffffffffffffffffffff1681526020019081526020016000208190555062000220565b8280546200011990620001bb565b90600052602060002090601f0160209004810192826200013d576000855562000189565b82601f106200015857805160ff191683800117855562000189565b8280016001018555821562000189579182015b82811115620001885782518255916020019190600101906200016b565b5b5090506200019891906200019c565b5090565b5b80821115620001b75760008160009055506001016200019d565b5090565b60006002820490506001821680620001d457607f821691505b60208210811415620001eb57620001ea620001f1565b5b50919050565b7f4e487b7100000000000000000000000000000000000000000000000000000000600052602260045260246000fd5b610d4280620002306000396000f3fe608060405234801561001057600080fd5b506004361061009e5760003560e01c80638381f58a116100665780638381f58a1461015d5780638504b88f1461017b5780638b9a0c89146101ab5780638f3f9f05146101db578063beabacc81461020b5761009e565b806356a6d9ef146100a35780635c658165146100d35780636c02a931146101035780637824407f146101215780637b61c3201461013f575b600080fd5b6100bd60048036038101906100b89190610950565b61023b565b6040516100ca9190610a2d565b60405180910390f35b6100ed60048036038101906100e891906108bd565b6103a1565b6040516100fa9190610aaa565b60405180910390f35b61010b6103c6565b6040516101189190610a48565b60405180910390f35b610129610454565b6040516101369190610aaa565b60405180910390f35b61014761045a565b6040516101549190610a48565b60405180910390f35b6101656104e8565b6040516101729190610aaa565b60405180910390f35b61019560048036038101906101909190610890565b6104ee565b6040516101a29190610aaa565b60405180910390f35b6101c560048036038101906101c09190610950565b610506565b6040516101d29190610a2d565b60405180910390f35b6101f560048036038101906101f09190610890565b6105f8565b6040516102029190610aaa565b60405180910390f35b610225600480360381019061022091906108fd565b610640565b6040516102329190610a2d565b60405180910390f35b600081610247336105f8565b1015610288576040517f08c379a000000000000000000000000000000000000000000000000000000000815260040161027f90610a8a565b60405180910390fd5b816000808573ffffffffffffffffffffffffffffffffffffffff1673ffffffffffffffffffffffffffffffffffffffff16815260200190815260200160002060008282546102d69190610ae1565b92505081905550816000803373ffffffffffffffffffffffffffffffffffffffff1673ffffffffffffffffffffffffffffffffffffffff168152602001908152602001600020600082825461032b9190610b37565b925050819055508273ffffffffffffffffffffffffffffffffffffffff163373ffffffffffffffffffffffffffffffffffffffff167fd6359de3dfc66612a73d81e658c6390727e6ea9d6048e6593ea4bb1d7f17cfba8460405161038f9190610aaa565b60405180910390a36001905092915050565b6005602052816000526040600020602052806000526040600020600091509150505481565b600280546103d390610be6565b80601f01602080910402602001604051908101604052809291908181526020018280546103ff90610be6565b801561044c5780601f106104215761010080835404028352916020019161044c565b820191906000526020600020905b81548152906001019060200180831161042f57829003601f168201915b505050505081565b60015481565b6003805461046790610be6565b80601f016020809104026020016040519081016040528092919081815260200182805461049390610be6565b80156104e05780601f106104b5576101008083540402835291602001916104e0565b820191906000526020600020905b8154815290600101906020018083116104c357829003601f168201915b505050505081565b60045481565b60006020528060005260406000206000915090505481565b600081600560003373ffffffffffffffffffffffffffffffffffffffff1673ffffffffffffffffffffffffffffffffffffffff16815260200190815260200160002060008573ffffffffffffffffffffffffffffffffffffffff1673ffffffffffffffffffffffffffffffffffffffff168152602001908152602001600020819055508273ffffffffffffffffffffffffffffffffffffffff163373ffffffffffffffffffffffffffffffffffffffff167fc45880dd4342d30a5ca6e56420d39d27a1cc516890a193db96e36c3211096416846040516105e69190610aaa565b60405180910390a36001905092915050565b60008060008373ffffffffffffffffffffffffffffffffffffffff1673ffffffffffffffffffffffffffffffffffffffff168152602001908152602001600020549050919050565b60008161064c856105f8565b101561068d576040517f08c379a000000000000000000000000000000000000000000000000000000000815260040161068490610a8a565b60405180910390fd5b81600560008673ffffffffffffffffffffffffffffffffffffffff1673ffffffffffffffffffffffffffffffffffffffff16815260200190815260200160002060003373ffffffffffffffffffffffffffffffffffffffff1673ffffffffffffffffffffffffffffffffffffffff16815260200190815260200160002054101561074c576040517f08c379a000000000000000000000000000000000000000000000000000000000815260040161074390610a6a565b60405180910390fd5b816000808573ffffffffffffffffffffffffffffffffffffffff1673ffffffffffffffffffffffffffffffffffffffff168152602001908152602001600020600082825461079a9190610ae1565b92505081905550816000808673ffffffffffffffffffffffffffffffffffffffff1673ffffffffffffffffffffffffffffffffffffffff16815260200190815260200160002060008282546107ef9190610b37565b925050819055508273ffffffffffffffffffffffffffffffffffffffff168473ffffffffffffffffffffffffffffffffffffffff167fd6359de3dfc66612a73d81e658c6390727e6ea9d6048e6593ea4bb1d7f17cfba846040516108539190610aaa565b60405180910390a3600190509392505050565b60008135905061087581610cde565b92915050565b60008135905061088a81610cf5565b92915050565b6000602082840312156108a6576108a5610c76565b5b60006108b484828501610866565b91505092915050565b600080604083850312156108d4576108d3610c76565b5b60006108e285828601610866565b92505060206108f385828601610866565b9150509250929050565b60008060006060848603121561091657610915610c76565b5b600061092486828701610866565b935050602061093586828701610866565b92505060406109468682870161087b565b9150509250925092565b6000806040838503121561096757610966610c76565b5b600061097585828601610866565b92505060206109868582860161087b565b9150509250929050565b61099981610b7d565b82525050565b60006109aa82610ac5565b6109b48185610ad0565b93506109c4818560208601610bb3565b6109cd81610c7b565b840191505092915050565b60006109e5601583610ad0565b91506109f082610c8c565b602082019050919050565b6000610a08601383610ad0565b9150610a1382610cb5565b602082019050919050565b610a2781610ba9565b82525050565b6000602082019050610a426000830184610990565b92915050565b60006020820190508181036000830152610a62818461099f565b905092915050565b60006020820190508181036000830152610a83816109d8565b9050919050565b60006020820190508181036000830152610aa3816109fb565b9050919050565b6000602082019050610abf6000830184610a1e565b92915050565b600081519050919050565b600082825260208201905092915050565b6000610aec82610ba9565b9150610af783610ba9565b9250827fffffffffffffffffffffffffffffffffffffffffffffffffffffffffffffffff03821115610b2c57610b2b610c18565b5b828201905092915050565b6000610b4282610ba9565b9150610b4d83610ba9565b925082821015610b6057610b5f610c18565b5b828203905092915050565b6000610b7682610b89565b9050919050565b60008115159050919050565b600073ffffffffffffffffffffffffffffffffffffffff82169050919050565b6000819050919050565b60005b83811015610bd1578082015181840152602081019050610bb6565b83811115610be0576000848401525b50505050565b60006002820490506001821680610bfe57607f821691505b60208210811415610c1257610c11610c47565b5b50919050565b7f4e487b7100000000000000000000000000000000000000000000000000000000600052601160045260246000fd5b7f4e487b7100000000000000000000000000000000000000000000000000000000600052602260045260246000fd5b600080fd5b6000601f19601f8301169050919050565b7f4e6f7420656e6f75676820616c6c6f77616e6365210000000000000000000000600082015250565b7f4e6f7420656e6f7567682062616c616e63652100000000000000000000000000600082015250565b610ce781610b6b565b8114610cf257600080fd5b50565b610cfe81610ba9565b8114610d0957600080fd5b5056fea26469706673582212204e00e55c84e562abec355c922bb8edb0641a2c6e845aa8195a429c41b1d506af64736f6c63430008060033",
  "immutableReferences": {},
  "source": "// SPDX-License-Identifier: MIT\npragma solidity ^0.8.6;\n\ncontract CryptoCurrency{\n    mapping(address => uint) public walletBalances;\n    uint public tokenSupply = 1000 * 10 ** 18;\n    string public tokenName = \"Gurkaran's Token\";\n    string public tokenSymbol = \"GKC\";\n    uint public number = 18;\n    mapping(address => mapping(address => uint)) public allowed;\n\n    event BalanceTransfered(address indexed fromAddress, address indexed toAddress, uint amount);\n    event AddressApproved(address indexed ownerAddress, address indexed spenderAddress, uint amount);\n\n    constructor(){\n        walletBalances[msg.sender] = tokenSupply;\n    }\n\n    function calculateBalanceOf(address _owner) public view returns(uint){\n        return walletBalances[_owner];\n    }\n\n    function transferBalance(address _toAddress, uint _amount) public returns (bool){\n        require(calculateBalanceOf(msg.sender) >= _amount, \"Not enough balance!\");\n        walletBalances[_toAddress] += _amount;\n        walletBalances[msg.sender] -= _amount;\n        emit BalanceTransfered(msg.sender, _toAddress, _amount);\n        return true;\n    }\n\n    function transfer(address _fromAddress, address _toAddress, uint _amount) public returns(bool){\n        require(calculateBalanceOf(_fromAddress) >= _amount, 'Not enough balance!');\n        require(allowed[_fromAddress][msg.sender] >= _amount, 'Not enough allowance!');\n        walletBalances[_toAddress] += _amount;\n        walletBalances[_fromAddress] -= _amount;\n        emit BalanceTransfered(_fromAddress, _toAddress, _amount);\n        return true;\n    }\n\n    function approveAddress(address _spenderAddress, uint _amount) public returns (bool){\n        allowed[msg.sender][_spenderAddress] = _amount;\n        emit AddressApproved(msg.sender, _spenderAddress, _amount);\n        return true;\n    }\n\n}",
  "sourcePath": "/Users/karan/Desktop/Project Folder/react-blockchain-project/contracts/CryptoCurrency.sol",
  "compiler": {
    "name": "solc",
    "version": "0.8.6+commit.11564f7e.Emscripten.clang"
  },
  "schemaVersion": "3.4.1",
  "updatedAt": "2021-09-07T08:52:22.477Z",
  "devdoc": {
    "kind": "dev",
    "methods": {},
    "version": 1
  },
  "userdoc": {
    "kind": "user",
    "methods": {},
    "version": 1
  }
}