{
  "contractName": "Decentralized",
  "abi": [
    {
      "anonymous": false,
      "inputs": [
        {
          "indexed": false,
          "internalType": "uint256",
          "name": "fileId",
          "type": "uint256"
        },
        {
          "indexed": false,
          "internalType": "string",
          "name": "fileName",
          "type": "string"
        },
        {
          "indexed": false,
          "internalType": "string",
          "name": "fileDescription",
          "type": "string"
        },
        {
          "indexed": false,
          "internalType": "string",
          "name": "fileHash",
          "type": "string"
        },
        {
          "indexed": false,
          "internalType": "uint256",
          "name": "fileSize",
          "type": "uint256"
        },
        {
          "indexed": false,
          "internalType": "uint256",
          "name": "fileUploadTime",
          "type": "uint256"
        },
        {
          "indexed": false,
          "internalType": "address payable",
          "name": "fileUploader",
          "type": "address"
        }
      ],
      "name": "FileUploaded",
      "type": "event"
    },
    {
      "anonymous": false,
      "inputs": [
        {
          "indexed": false,
          "internalType": "uint256",
          "name": "itemId",
          "type": "uint256"
        },
        {
          "indexed": false,
          "internalType": "string",
          "name": "itemName",
          "type": "string"
        },
        {
          "indexed": false,
          "internalType": "string",
          "name": "itemDescription",
          "type": "string"
        },
        {
          "indexed": false,
          "internalType": "uint256",
          "name": "itemPrice",
          "type": "uint256"
        },
        {
          "indexed": false,
          "internalType": "address payable",
          "name": "itemOwner",
          "type": "address"
        }
      ],
      "name": "ItemBought",
      "type": "event"
    },
    {
      "anonymous": false,
      "inputs": [
        {
          "indexed": false,
          "internalType": "uint256",
          "name": "itemId",
          "type": "uint256"
        },
        {
          "indexed": false,
          "internalType": "string",
          "name": "itemName",
          "type": "string"
        },
        {
          "indexed": false,
          "internalType": "string",
          "name": "itemDescription",
          "type": "string"
        },
        {
          "indexed": false,
          "internalType": "uint256",
          "name": "itemPrice",
          "type": "uint256"
        },
        {
          "indexed": false,
          "internalType": "address payable",
          "name": "itemOwner",
          "type": "address"
        }
      ],
      "name": "ItemUploaded",
      "type": "event"
    },
    {
      "anonymous": false,
      "inputs": [
        {
          "indexed": false,
          "internalType": "uint256",
          "name": "movieId",
          "type": "uint256"
        },
        {
          "indexed": false,
          "internalType": "uint256",
          "name": "moviePrice",
          "type": "uint256"
        }
      ],
      "name": "MovieBooked",
      "type": "event"
    },
    {
      "anonymous": false,
      "inputs": [
        {
          "indexed": false,
          "internalType": "int256",
          "name": "longitude",
          "type": "int256"
        },
        {
          "indexed": false,
          "internalType": "int256",
          "name": "latitude",
          "type": "int256"
        },
        {
          "indexed": false,
          "internalType": "uint256",
          "name": "confirmedCases",
          "type": "uint256"
        },
        {
          "indexed": false,
          "internalType": "uint256",
          "name": "recoveredCases",
          "type": "uint256"
        },
        {
          "indexed": false,
          "internalType": "uint256",
          "name": "deaths",
          "type": "uint256"
        }
      ],
      "name": "PlaceCreated",
      "type": "event"
    },
    {
      "anonymous": false,
      "inputs": [
        {
          "indexed": false,
          "internalType": "uint256",
          "name": "postId",
          "type": "uint256"
        },
        {
          "indexed": false,
          "internalType": "string",
          "name": "postHash",
          "type": "string"
        },
        {
          "indexed": false,
          "internalType": "string",
          "name": "postDescription",
          "type": "string"
        },
        {
          "indexed": false,
          "internalType": "uint256",
          "name": "tipPostAmount",
          "type": "uint256"
        },
        {
          "indexed": false,
          "internalType": "address payable",
          "name": "poster",
          "type": "address"
        }
      ],
      "name": "PostCommented",
      "type": "event"
    },
    {
      "anonymous": false,
      "inputs": [
        {
          "indexed": false,
          "internalType": "uint256",
          "name": "postId",
          "type": "uint256"
        },
        {
          "indexed": false,
          "internalType": "string",
          "name": "postHash",
          "type": "string"
        },
        {
          "indexed": false,
          "internalType": "string",
          "name": "postDescription",
          "type": "string"
        },
        {
          "indexed": false,
          "internalType": "uint256",
          "name": "tipPostAmount",
          "type": "uint256"
        },
        {
          "indexed": false,
          "internalType": "address payable",
          "name": "poster",
          "type": "address"
        }
      ],
      "name": "PostCreated",
      "type": "event"
    },
    {
      "anonymous": false,
      "inputs": [
        {
          "indexed": false,
          "internalType": "uint256",
          "name": "postId",
          "type": "uint256"
        },
        {
          "indexed": false,
          "internalType": "string",
          "name": "postHash",
          "type": "string"
        },
        {
          "indexed": false,
          "internalType": "string",
          "name": "postDescription",
          "type": "string"
        },
        {
          "indexed": false,
          "internalType": "uint256",
          "name": "tipPostAmount",
          "type": "uint256"
        },
        {
          "indexed": false,
          "internalType": "address payable",
          "name": "poster",
          "type": "address"
        }
      ],
      "name": "PostTipped",
      "type": "event"
    },
    {
      "inputs": [],
      "name": "fileCount",
      "outputs": [
        {
          "internalType": "uint256",
          "name": "",
          "type": "uint256"
        }
      ],
      "stateMutability": "view",
      "type": "function",
      "constant": true
    },
    {
      "inputs": [
        {
          "internalType": "uint256",
          "name": "",
          "type": "uint256"
        }
      ],
      "name": "files",
      "outputs": [
        {
          "internalType": "uint256",
          "name": "fileId",
          "type": "uint256"
        },
        {
          "internalType": "string",
          "name": "fileName",
          "type": "string"
        },
        {
          "internalType": "string",
          "name": "fileDescription",
          "type": "string"
        },
        {
          "internalType": "string",
          "name": "fileHash",
          "type": "string"
        },
        {
          "internalType": "uint256",
          "name": "fileSize",
          "type": "uint256"
        },
        {
          "internalType": "uint256",
          "name": "fileUploadTime",
          "type": "uint256"
        },
        {
          "internalType": "address payable",
          "name": "fileUploader",
          "type": "address"
        }
      ],
      "stateMutability": "view",
      "type": "function",
      "constant": true
    },
    {
      "inputs": [],
      "name": "itemCount",
      "outputs": [
        {
          "internalType": "uint256",
          "name": "",
          "type": "uint256"
        }
      ],
      "stateMutability": "view",
      "type": "function",
      "constant": true
    },
    {
      "inputs": [
        {
          "internalType": "uint256",
          "name": "",
          "type": "uint256"
        }
      ],
      "name": "items",
      "outputs": [
        {
          "internalType": "uint256",
          "name": "itemId",
          "type": "uint256"
        },
        {
          "internalType": "string",
          "name": "itemName",
          "type": "string"
        },
        {
          "internalType": "string",
          "name": "itemDescription",
          "type": "string"
        },
        {
          "internalType": "uint256",
          "name": "itemPrice",
          "type": "uint256"
        },
        {
          "internalType": "address payable",
          "name": "itemOwner",
          "type": "address"
        }
      ],
      "stateMutability": "view",
      "type": "function",
      "constant": true
    },
    {
      "inputs": [],
      "name": "movieCount",
      "outputs": [
        {
          "internalType": "uint256",
          "name": "",
          "type": "uint256"
        }
      ],
      "stateMutability": "view",
      "type": "function",
      "constant": true
    },
    {
      "inputs": [
        {
          "internalType": "uint256",
          "name": "",
          "type": "uint256"
        }
      ],
      "name": "movies",
      "outputs": [
        {
          "internalType": "uint256",
          "name": "movieId",
          "type": "uint256"
        },
        {
          "internalType": "uint256",
          "name": "moviePrice",
          "type": "uint256"
        }
      ],
      "stateMutability": "view",
      "type": "function",
      "constant": true
    },
    {
      "inputs": [],
      "name": "name",
      "outputs": [
        {
          "internalType": "string",
          "name": "",
          "type": "string"
        }
      ],
      "stateMutability": "view",
      "type": "function",
      "constant": true
    },
    {
      "inputs": [],
      "name": "owner",
      "outputs": [
        {
          "internalType": "address payable",
          "name": "",
          "type": "address"
        }
      ],
      "stateMutability": "view",
      "type": "function",
      "constant": true
    },
    {
      "inputs": [],
      "name": "placeCount",
      "outputs": [
        {
          "internalType": "uint256",
          "name": "",
          "type": "uint256"
        }
      ],
      "stateMutability": "view",
      "type": "function",
      "constant": true
    },
    {
      "inputs": [
        {
          "internalType": "uint256",
          "name": "",
          "type": "uint256"
        }
      ],
      "name": "places",
      "outputs": [
        {
          "internalType": "int256",
          "name": "longitude",
          "type": "int256"
        },
        {
          "internalType": "int256",
          "name": "latitude",
          "type": "int256"
        },
        {
          "internalType": "uint256",
          "name": "confirmedCases",
          "type": "uint256"
        },
        {
          "internalType": "uint256",
          "name": "recoveredCases",
          "type": "uint256"
        },
        {
          "internalType": "uint256",
          "name": "deaths",
          "type": "uint256"
        }
      ],
      "stateMutability": "view",
      "type": "function",
      "constant": true
    },
    {
      "inputs": [],
      "name": "postCount",
      "outputs": [
        {
          "internalType": "uint256",
          "name": "",
          "type": "uint256"
        }
      ],
      "stateMutability": "view",
      "type": "function",
      "constant": true
    },
    {
      "inputs": [
        {
          "internalType": "uint256",
          "name": "",
          "type": "uint256"
        }
      ],
      "name": "posts",
      "outputs": [
        {
          "internalType": "uint256",
          "name": "postId",
          "type": "uint256"
        },
        {
          "internalType": "string",
          "name": "postHash",
          "type": "string"
        },
        {
          "internalType": "string",
          "name": "postDescription",
          "type": "string"
        },
        {
          "internalType": "uint256",
          "name": "tipPostAmount",
          "type": "uint256"
        },
        {
          "internalType": "address payable",
          "name": "poster",
          "type": "address"
        }
      ],
      "stateMutability": "view",
      "type": "function",
      "constant": true
    },
    {
      "inputs": [
        {
          "internalType": "string",
          "name": "_postHash",
          "type": "string"
        },
        {
          "internalType": "string",
          "name": "_postDescription",
          "type": "string"
        }
      ],
      "name": "uploadPost",
      "outputs": [],
      "stateMutability": "nonpayable",
      "type": "function"
    },
    {
      "inputs": [
        {
          "internalType": "uint256",
          "name": "_postId",
          "type": "uint256"
        }
      ],
      "name": "tipPostOwner",
      "outputs": [],
      "stateMutability": "payable",
      "type": "function",
      "payable": true
    },
    {
      "inputs": [
        {
          "internalType": "string",
          "name": "_fileHash",
          "type": "string"
        },
        {
          "internalType": "uint256",
          "name": "_fileSize",
          "type": "uint256"
        },
        {
          "internalType": "string",
          "name": "_fileName",
          "type": "string"
        },
        {
          "internalType": "string",
          "name": "_fileDescription",
          "type": "string"
        }
      ],
      "name": "uploadFile",
      "outputs": [],
      "stateMutability": "nonpayable",
      "type": "function"
    },
    {
      "inputs": [
        {
          "internalType": "string",
          "name": "_itemName",
          "type": "string"
        },
        {
          "internalType": "string",
          "name": "_itemDescription",
          "type": "string"
        },
        {
          "internalType": "uint256",
          "name": "_itemPrice",
          "type": "uint256"
        }
      ],
      "name": "uploadItem",
      "outputs": [],
      "stateMutability": "nonpayable",
      "type": "function"
    },
    {
      "inputs": [
        {
          "internalType": "uint256",
          "name": "_itemId",
          "type": "uint256"
        }
      ],
      "name": "buyItem",
      "outputs": [],
      "stateMutability": "payable",
      "type": "function",
      "payable": true
    },
    {
      "inputs": [
        {
          "internalType": "uint256",
          "name": "_movieId",
          "type": "uint256"
        }
      ],
      "name": "addBookedMovie",
      "outputs": [],
      "stateMutability": "payable",
      "type": "function",
      "payable": true
    },
    {
      "inputs": [
        {
          "internalType": "int256",
          "name": "_longitude",
          "type": "int256"
        },
        {
          "internalType": "int256",
          "name": "_latitude",
          "type": "int256"
        },
        {
          "internalType": "uint256",
          "name": "_confirmedCases",
          "type": "uint256"
        },
        {
          "internalType": "uint256",
          "name": "_recoveredCases",
          "type": "uint256"
        },
        {
          "internalType": "uint256",
          "name": "_deaths",
          "type": "uint256"
        }
      ],
      "name": "addPlaceDetails",
      "outputs": [],
      "stateMutability": "nonpayable",
      "type": "function"
    }
  ],
  "bytecode": "0x60806040526000600155600060025560006003556000600455600060055534801561002957600080fd5b5061211c806100396000396000f3fe6080604052600436106101145760003560e01c80636bfb0d01116100a0578063bfb231d211610064578063bfb231d214610385578063d6313c06146103c6578063e557bb4e146103e2578063e7fb74c714610423578063f4c714b41461043f57610114565b80636bfb0d01146102bd5780638778658a146102e85780638da5cb5b14610313578063a1daf3261461033e578063bcccb8da1461036957610114565b806317906c2e116100e757806317906c2e146101d757806320f2170814610202578063404ebf6c1461022b57806343953519146102695780635d13986e1461029457610114565b806306fdde03146101195780630b1e7f83146101445780630cb1c7ee146101855780631228c92c146101ae575b600080fd5b34801561012557600080fd5b5061012e610482565b60405161013b9190611c4c565b60405180910390f35b34801561015057600080fd5b5061016b60048036038101906101669190611b3c565b610510565b60405161017c959493929190611d6e565b60405180910390f35b34801561019157600080fd5b506101ac60048036038101906101a7919061197e565b610676565b005b3480156101ba57600080fd5b506101d560048036038101906101d09190611903565b610817565b005b3480156101e357600080fd5b506101ec6108e6565b6040516101f99190611c6e565b60405180910390f35b34801561020e57600080fd5b5061022960048036038101906102249190611a81565b6108ec565b005b34801561023757600080fd5b50610252600480360381019061024d9190611b3c565b610ade565b604051610260929190611dcf565b60405180910390f35b34801561027557600080fd5b5061027e610b02565b60405161028b9190611c6e565b60405180910390f35b3480156102a057600080fd5b506102bb60048036038101906102b691906119f6565b610b08565b005b3480156102c957600080fd5b506102d2610cb5565b6040516102df9190611c6e565b60405180910390f35b3480156102f457600080fd5b506102fd610cbb565b60405161030a9190611c6e565b60405180910390f35b34801561031f57600080fd5b50610328610cc1565b6040516103359190611bde565b60405180910390f35b34801561034a57600080fd5b50610353610cd9565b6040516103609190611c6e565b60405180910390f35b610383600480360381019061037e9190611b3c565b610cdf565b005b34801561039157600080fd5b506103ac60048036038101906103a79190611b3c565b610de2565b6040516103bd959493929190611d6e565b60405180910390f35b6103e060048036038101906103db9190611b3c565b610f48565b005b3480156103ee57600080fd5b5061040960048036038101906104049190611b3c565b611278565b60405161041a959493929190611bf9565b60405180910390f35b61043d60048036038101906104389190611b3c565b6112ae565b005b34801561044b57600080fd5b5061046660048036038101906104619190611b3c565b61158c565b6040516104799796959493929190611cea565b60405180910390f35b6000805461048f90611f5a565b80601f01602080910402602001604051908101604052809291908181526020018280546104bb90611f5a565b80156105085780601f106104dd57610100808354040283529160200191610508565b820191906000526020600020905b8154815290600101906020018083116104eb57829003601f168201915b505050505081565b600660205280600052604060002060009150905080600001549080600101805461053990611f5a565b80601f016020809104026020016040519081016040528092919081815260200182805461056590611f5a565b80156105b25780601f10610587576101008083540402835291602001916105b2565b820191906000526020600020905b81548152906001019060200180831161059557829003601f168201915b5050505050908060020180546105c790611f5a565b80601f01602080910402602001604051908101604052809291908181526020018280546105f390611f5a565b80156106405780601f1061061557610100808354040283529160200191610640565b820191906000526020600020905b81548152906001019060200180831161062357829003601f168201915b5050505050908060030154908060040160009054906101000a900473ffffffffffffffffffffffffffffffffffffffff16905085565b600082511161068457600080fd5b600081511161069257600080fd5b600073ffffffffffffffffffffffffffffffffffffffff163373ffffffffffffffffffffffffffffffffffffffff1614156106cc57600080fd5b600160008154809291906106df90611fbd565b91905055506040518060a001604052806001548152602001838152602001828152602001600081526020013373ffffffffffffffffffffffffffffffffffffffff1681525060066000600154815260200190815260200160002060008201518160000155602082015181600101908051906020019061075f929190611786565b50604082015181600201908051906020019061077c929190611786565b506060820151816003015560808201518160040160006101000a81548173ffffffffffffffffffffffffffffffffffffffff021916908373ffffffffffffffffffffffffffffffffffffffff1602179055509050507f0e2769bd597cd7048e25b64a846e1254d4cb84b13c4aba4ad4a891baf7a399c6600154838360003360405161080b959493929190611c89565b60405180910390a15050565b6005600081548092919061082a90611fbd565b91905055506040518060a0016040528086815260200185815260200184815260200183815260200182815250600a6000600554815260200190815260200160002060008201518160000155602082015181600101556040820151816002015560608201518160030155608082015181600401559050507fa00baf88dc337fa223bbd2b09c16a867d04e27385f43710f3678795753a9334c85858585856040516108d7959493929190611bf9565b60405180910390a15050505050565b60015481565b60008451116108fa57600080fd5b600081511161090857600080fd5b600082511161091657600080fd5b600073ffffffffffffffffffffffffffffffffffffffff163373ffffffffffffffffffffffffffffffffffffffff16141561095057600080fd5b6000831161095d57600080fd5b6002600081548092919061097090611fbd565b91905055506040518060e0016040528060025481526020018381526020018281526020018581526020018481526020014281526020013373ffffffffffffffffffffffffffffffffffffffff168152506007600060025481526020019081526020016000206000820151816000015560208201518160010190805190602001906109fb929190611786565b506040820151816002019080519060200190610a18929190611786565b506060820151816003019080519060200190610a35929190611786565b506080820151816004015560a0820151816005015560c08201518160060160006101000a81548173ffffffffffffffffffffffffffffffffffffffff021916908373ffffffffffffffffffffffffffffffffffffffff1602179055509050507e5aa4b5f1d89ebdbf8b1c6dc570a86ac81ff2291d9d35adc48eb0af99d49037600254838387874233604051610ad09796959493929190611cea565b60405180910390a150505050565b60096020528060005260406000206000915090508060000154908060010154905082565b60025481565b6000835111610b1657600080fd5b6000825111610b2457600080fd5b60008111610b3157600080fd5b600073ffffffffffffffffffffffffffffffffffffffff163373ffffffffffffffffffffffffffffffffffffffff161415610b6b57600080fd5b60036000815480929190610b7e90611fbd565b91905055506040518060a0016040528060035481526020018481526020018381526020018281526020013373ffffffffffffffffffffffffffffffffffffffff16815250600860006003548152602001908152602001600020600082015181600001556020820151816001019080519060200190610bfd929190611786565b506040820151816002019080519060200190610c1a929190611786565b506060820151816003015560808201518160040160006101000a81548173ffffffffffffffffffffffffffffffffffffffff021916908373ffffffffffffffffffffffffffffffffffffffff1602179055509050507f2ca79d807eca7a536057ebe3845130cb4c6262a92ba027325a68703c8550f3e860035484848433604051610ca8959493929190611d6e565b60405180910390a1505050565b60035481565b60055481565b73d07514cc003fa03c96a6c520051a7c58b49a000381565b60045481565b60008111610cec57600080fd5b60046000815480929190610cff90611fbd565b9190505550600073d07514cc003fa03c96a6c520051a7c58b49a000390508073ffffffffffffffffffffffffffffffffffffffff166108fc349081150290604051600060405180830381858888f19350505050158015610d63573d6000803e3d6000fd5b5060405180604001604052808381526020013481525060096000600454815260200190815260200160002060008201518160000155602082015181600101559050507f167fe0fbc05ebecafe829e59c6b37a65632f4e3df45ef7294a10bba3c61e8c4f8234604051610dd6929190611dcf565b60405180910390a15050565b6008602052806000526040600020600091509050806000015490806001018054610e0b90611f5a565b80601f0160208091040260200160405190810160405280929190818152602001828054610e3790611f5a565b8015610e845780601f10610e5957610100808354040283529160200191610e84565b820191906000526020600020905b815481529060010190602001808311610e6757829003601f168201915b505050505090806002018054610e9990611f5a565b80601f0160208091040260200160405190810160405280929190818152602001828054610ec590611f5a565b8015610f125780601f10610ee757610100808354040283529160200191610f12565b820191906000526020600020905b815481529060010190602001808311610ef557829003601f168201915b5050505050908060030154908060040160009054906101000a900473ffffffffffffffffffffffffffffffffffffffff16905085565b600081118015610f5a57506001548111155b610f6357600080fd5b6000600660008381526020019081526020016000206040518060a001604052908160008201548152602001600182018054610f9d90611f5a565b80601f0160208091040260200160405190810160405280929190818152602001828054610fc990611f5a565b80156110165780601f10610feb57610100808354040283529160200191611016565b820191906000526020600020905b815481529060010190602001808311610ff957829003601f168201915b5050505050815260200160028201805461102f90611f5a565b80601f016020809104026020016040519081016040528092919081815260200182805461105b90611f5a565b80156110a85780601f1061107d576101008083540402835291602001916110a8565b820191906000526020600020905b81548152906001019060200180831161108b57829003601f168201915b50505050508152602001600382015481526020016004820160009054906101000a900473ffffffffffffffffffffffffffffffffffffffff1673ffffffffffffffffffffffffffffffffffffffff1673ffffffffffffffffffffffffffffffffffffffff168152505090506000816080015190508073ffffffffffffffffffffffffffffffffffffffff166108fc349081150290604051600060405180830381858888f19350505050158015611162573d6000803e3d6000fd5b503482606001516111739190611e6a565b82606001818152505081600660008581526020019081526020016000206000820151816000015560208201518160010190805190602001906111b6929190611786565b5060408201518160020190805190602001906111d3929190611786565b506060820151816003015560808201518160040160006101000a81548173ffffffffffffffffffffffffffffffffffffffff021916908373ffffffffffffffffffffffffffffffffffffffff1602179055509050507f8cdd31fc6bd9c789638fdbd3ed5c788b27fa5d287f300e92f3c436ba03527db3838360200151846040015185606001518560405161126b959493929190611d6e565b60405180910390a1505050565b600a6020528060005260406000206000915090508060000154908060010154908060020154908060030154908060040154905085565b6000811180156112c057506003548111155b6112c957600080fd5b6000600860008381526020019081526020016000206040518060a00160405290816000820154815260200160018201805461130390611f5a565b80601f016020809104026020016040519081016040528092919081815260200182805461132f90611f5a565b801561137c5780601f106113515761010080835404028352916020019161137c565b820191906000526020600020905b81548152906001019060200180831161135f57829003601f168201915b5050505050815260200160028201805461139590611f5a565b80601f01602080910402602001604051908101604052809291908181526020018280546113c190611f5a565b801561140e5780601f106113e35761010080835404028352916020019161140e565b820191906000526020600020905b8154815290600101906020018083116113f157829003601f168201915b50505050508152602001600382015481526020016004820160009054906101000a900473ffffffffffffffffffffffffffffffffffffffff1673ffffffffffffffffffffffffffffffffffffffff1673ffffffffffffffffffffffffffffffffffffffff168152505090506000816080015190508073ffffffffffffffffffffffffffffffffffffffff166108fc83606001519081150290604051600060405180830381858888f193505050501580156114cc573d6000803e3d6000fd5b50600860008481526020019081526020016000206000808201600090556001820160006114f9919061180c565b600282016000611509919061180c565b60038201600090556004820160006101000a81549073ffffffffffffffffffffffffffffffffffffffff021916905550507fe006bb183b336403841e2186faa9eca7490cdc7e731f8d7af65ca2740efb59ec6003548360200151846040015185606001513360405161157f959493929190611d6e565b60405180910390a1505050565b60076020528060005260406000206000915090508060000154908060010180546115b590611f5a565b80601f01602080910402602001604051908101604052809291908181526020018280546115e190611f5a565b801561162e5780601f106116035761010080835404028352916020019161162e565b820191906000526020600020905b81548152906001019060200180831161161157829003601f168201915b50505050509080600201805461164390611f5a565b80601f016020809104026020016040519081016040528092919081815260200182805461166f90611f5a565b80156116bc5780601f10611691576101008083540402835291602001916116bc565b820191906000526020600020905b81548152906001019060200180831161169f57829003601f168201915b5050505050908060030180546116d190611f5a565b80601f01602080910402602001604051908101604052809291908181526020018280546116fd90611f5a565b801561174a5780601f1061171f5761010080835404028352916020019161174a565b820191906000526020600020905b81548152906001019060200180831161172d57829003601f168201915b5050505050908060040154908060050154908060060160009054906101000a900473ffffffffffffffffffffffffffffffffffffffff16905087565b82805461179290611f5a565b90600052602060002090601f0160209004810192826117b457600085556117fb565b82601f106117cd57805160ff19168380011785556117fb565b828001600101855582156117fb579182015b828111156117fa5782518255916020019190600101906117df565b5b509050611808919061184c565b5090565b50805461181890611f5a565b6000825580601f1061182a5750611849565b601f016020900490600052602060002090810190611848919061184c565b5b50565b5b8082111561186557600081600090555060010161184d565b5090565b600061187c61187784611e1d565b611df8565b90508281526020810184848401111561189857611897612098565b5b6118a3848285611f18565b509392505050565b6000813590506118ba816120b8565b92915050565b600082601f8301126118d5576118d4612093565b5b81356118e5848260208601611869565b91505092915050565b6000813590506118fd816120cf565b92915050565b600080600080600060a0868803121561191f5761191e6120a2565b5b600061192d888289016118ab565b955050602061193e888289016118ab565b945050604061194f888289016118ee565b9350506060611960888289016118ee565b9250506080611971888289016118ee565b9150509295509295909350565b60008060408385031215611995576119946120a2565b5b600083013567ffffffffffffffff8111156119b3576119b261209d565b5b6119bf858286016118c0565b925050602083013567ffffffffffffffff8111156119e0576119df61209d565b5b6119ec858286016118c0565b9150509250929050565b600080600060608486031215611a0f57611a0e6120a2565b5b600084013567ffffffffffffffff811115611a2d57611a2c61209d565b5b611a39868287016118c0565b935050602084013567ffffffffffffffff811115611a5a57611a5961209d565b5b611a66868287016118c0565b9250506040611a77868287016118ee565b9150509250925092565b60008060008060808587031215611a9b57611a9a6120a2565b5b600085013567ffffffffffffffff811115611ab957611ab861209d565b5b611ac5878288016118c0565b9450506020611ad6878288016118ee565b935050604085013567ffffffffffffffff811115611af757611af661209d565b5b611b03878288016118c0565b925050606085013567ffffffffffffffff811115611b2457611b2361209d565b5b611b30878288016118c0565b91505092959194509250565b600060208284031215611b5257611b516120a2565b5b6000611b60848285016118ee565b91505092915050565b611b7281611ec0565b82525050565b611b8181611ed2565b82525050565b611b9081611f06565b82525050565b6000611ba182611e4e565b611bab8185611e59565b9350611bbb818560208601611f27565b611bc4816120a7565b840191505092915050565b611bd881611efc565b82525050565b6000602082019050611bf36000830184611b69565b92915050565b600060a082019050611c0e6000830188611b78565b611c1b6020830187611b78565b611c286040830186611bcf565b611c356060830185611bcf565b611c426080830184611bcf565b9695505050505050565b60006020820190508181036000830152611c668184611b96565b905092915050565b6000602082019050611c836000830184611bcf565b92915050565b600060a082019050611c9e6000830188611bcf565b8181036020830152611cb08187611b96565b90508181036040830152611cc48186611b96565b9050611cd36060830185611b87565b611ce06080830184611b69565b9695505050505050565b600060e082019050611cff600083018a611bcf565b8181036020830152611d118189611b96565b90508181036040830152611d258188611b96565b90508181036060830152611d398187611b96565b9050611d486080830186611bcf565b611d5560a0830185611bcf565b611d6260c0830184611b69565b98975050505050505050565b600060a082019050611d836000830188611bcf565b8181036020830152611d958187611b96565b90508181036040830152611da98186611b96565b9050611db86060830185611bcf565b611dc56080830184611b69565b9695505050505050565b6000604082019050611de46000830185611bcf565b611df16020830184611bcf565b9392505050565b6000611e02611e13565b9050611e0e8282611f8c565b919050565b6000604051905090565b600067ffffffffffffffff821115611e3857611e37612064565b5b611e41826120a7565b9050602081019050919050565b600081519050919050565b600082825260208201905092915050565b6000611e7582611efc565b9150611e8083611efc565b9250827fffffffffffffffffffffffffffffffffffffffffffffffffffffffffffffffff03821115611eb557611eb4612006565b5b828201905092915050565b6000611ecb82611edc565b9050919050565b6000819050919050565b600073ffffffffffffffffffffffffffffffffffffffff82169050919050565b6000819050919050565b6000611f1182611efc565b9050919050565b82818337600083830152505050565b60005b83811015611f45578082015181840152602081019050611f2a565b83811115611f54576000848401525b50505050565b60006002820490506001821680611f7257607f821691505b60208210811415611f8657611f85612035565b5b50919050565b611f95826120a7565b810181811067ffffffffffffffff82111715611fb457611fb3612064565b5b80604052505050565b6000611fc882611efc565b91507fffffffffffffffffffffffffffffffffffffffffffffffffffffffffffffffff821415611ffb57611ffa612006565b5b600182019050919050565b7f4e487b7100000000000000000000000000000000000000000000000000000000600052601160045260246000fd5b7f4e487b7100000000000000000000000000000000000000000000000000000000600052602260045260246000fd5b7f4e487b7100000000000000000000000000000000000000000000000000000000600052604160045260246000fd5b600080fd5b600080fd5b600080fd5b600080fd5b6000601f19601f8301169050919050565b6120c181611ed2565b81146120cc57600080fd5b50565b6120d881611efc565b81146120e357600080fd5b5056fea2646970667358221220a53dc26f78f22847db5dacf383e37a3a144f03544c01718ff9ac6b913ef9f8a064736f6c63430008060033",
  "immutableReferences": {},
  "source": "// SPDX-License-Identifier: MIT\npragma solidity ^0.8.6;\n\ncontract Decentralized {\n  string public name;\n  uint public postCount = 0;\n  uint public fileCount = 0;\n  uint public itemCount = 0;\n  uint public movieCount = 0;\n  uint public placeCount = 0;\n  address payable constant public owner = payable(0xD07514cC003fa03c96A6C520051A7c58B49a0003);\n  mapping(uint => Post) public posts;\n  mapping(uint => File) public files;\n  mapping(uint => Item) public items;\n  mapping(uint => Movie) public movies;\n  mapping(uint => Place) public places;\n\n  struct Post{\n    uint postId;\n    string postHash;\n    string postDescription;\n    uint tipPostAmount;\n    address payable poster;\n  }\n\n  struct Item{\n    uint itemId;\n    string itemName;\n    string itemDescription;\n    uint itemPrice;\n    address payable itemOwner;\n  }\n\n  struct File{\n    uint fileId;\n    string fileName;\n    string fileDescription;\n    string fileHash;\n    uint fileSize;\n    uint fileUploadTime;\n    address payable fileUploader;\n  }\n\n  struct Movie{\n    uint movieId;\n    uint moviePrice;\n  }\n\n  struct Place{\n    int longitude;\n    int latitude;\n    uint confirmedCases;\n    uint recoveredCases;\n    uint deaths;\n  }\n\n\n  event PostCreated(\n    uint postId,\n    string postHash,\n    string postDescription,\n    uint tipPostAmount,\n    address payable poster\n  );\n\n  event PostTipped(\n    uint postId,\n    string postHash,\n    string postDescription,\n    uint tipPostAmount,\n    address payable poster\n  );\n\n  event PostCommented(\n    uint postId,\n    string postHash,\n    string postDescription,\n    uint tipPostAmount,\n    address payable poster\n  );\n\n  event FileUploaded(\n    uint fileId,\n    string fileName,\n    string fileDescription,\n    string fileHash,\n    uint fileSize,\n    uint fileUploadTime,\n    address payable fileUploader\n  );\n\n  event ItemUploaded(\n    uint itemId,\n    string itemName,\n    string itemDescription,\n    uint itemPrice,\n    address payable itemOwner\n  );\n\n  event ItemBought(\n    uint itemId,\n    string itemName,\n    string itemDescription,\n    uint itemPrice,\n    address payable itemOwner\n  );\n\n  event MovieBooked(\n    uint movieId,\n    uint moviePrice\n  );\n\n  event PlaceCreated(\n    int longitude,\n    int latitude,\n    uint confirmedCases,\n    uint recoveredCases,\n    uint deaths\n  );\n\n  function uploadPost(string memory _postHash, string memory _postDescription) public {\n    require(bytes(_postHash).length > 0);\n    require(bytes(_postDescription).length > 0);\n    require(msg.sender != address(0));\n    postCount ++;\n    posts[postCount] = Post(postCount, _postHash, _postDescription, 0, payable(msg.sender));\n    emit PostCreated(postCount, _postHash, _postDescription, 0, payable(msg.sender));\n  }\n\n\n  function tipPostOwner(uint _postId) public payable {\n    require(_postId > 0 && _postId <= postCount);\n    Post memory _post = posts[_postId];\n    address payable _poster = _post.poster;\n    payable(_poster).transfer(msg.value);\n    _post.tipPostAmount = _post.tipPostAmount + msg.value;\n    posts[_postId] = _post;\n    emit PostTipped(_postId, _post.postHash, _post.postDescription, _post.tipPostAmount, _poster);\n  }\n\n  function uploadFile(string memory _fileHash, uint _fileSize, string memory _fileName, string memory _fileDescription) public {\n    require(bytes(_fileHash).length > 0);\n    require(bytes(_fileDescription).length > 0);\n    require(bytes(_fileName).length > 0);\n    require(msg.sender != address(0));\n    require(_fileSize > 0);\n    fileCount ++;\n    files[fileCount] = File(fileCount, _fileName, _fileDescription, _fileHash, _fileSize, block.timestamp, payable(msg.sender));\n    emit FileUploaded(fileCount, _fileName, _fileDescription, _fileHash, _fileSize, block.timestamp, payable(msg.sender));\n  }\n\n  function uploadItem(string memory _itemName, string memory _itemDescription, uint _itemPrice) public{\n    require(bytes(_itemName).length > 0);\n    require(bytes(_itemDescription).length > 0);\n    require(_itemPrice > 0);\n    require(msg.sender != address(0));\n    itemCount ++;\n    items[itemCount] = Item(itemCount,_itemName,_itemDescription,_itemPrice,payable(msg.sender));\n    emit ItemUploaded(itemCount,_itemName,_itemDescription,_itemPrice,payable(msg.sender));\n  }\n\n  function buyItem(uint _itemId) public payable{\n    require(_itemId > 0 && _itemId <= itemCount);\n    Item memory _item = items[_itemId];\n    address payable _itemUploader = _item.itemOwner;\n    payable(_itemUploader).transfer(_item.itemPrice);\n    delete items[_itemId];\n    emit ItemBought(itemCount,_item.itemName,_item.itemDescription,_item.itemPrice,payable(msg.sender));\n  }\n\n  function addBookedMovie(uint _movieId) public payable{\n    require(_movieId > 0);\n    movieCount ++;\n    address payable _owner = owner;\n    payable(_owner).transfer(msg.value);\n    movies[movieCount] = Movie(_movieId, msg.value);\n    emit MovieBooked(_movieId, msg.value);\n  }\n\n  function addPlaceDetails(int _longitude, int _latitude, uint _confirmedCases, uint _recoveredCases, uint _deaths) public{\n    placeCount ++;\n    places[placeCount] = Place(_longitude, _latitude, _confirmedCases, _recoveredCases, _deaths);\n    emit PlaceCreated(_longitude, _latitude, _confirmedCases, _recoveredCases, _deaths);\n  }\n\n}\n",
  "sourcePath": "/Users/karan/Desktop/Project Folder/react-blockchain-project/contracts/Decentralized.sol",
  "compiler": {
    "name": "solc",
    "version": "0.8.6+commit.11564f7e.Emscripten.clang"
  },
  "schemaVersion": "3.4.1",
  "updatedAt": "2021-09-07T08:52:28.199Z",
  "networkType": "ethereum",
  "devdoc": {
    "kind": "dev",
    "methods": {},
    "version": 1
  },
  "userdoc": {
    "kind": "user",
    "methods": {},
    "version": 1
  }
}