{
  "contractName": "NonFungibleToken",
  "abi": [
    {
      "inputs": [],
      "stateMutability": "nonpayable",
      "type": "constructor"
    },
    {
      "anonymous": false,
      "inputs": [
        {
          "indexed": true,
          "internalType": "address",
          "name": "owner",
          "type": "address"
        },
        {
          "indexed": true,
          "internalType": "address",
          "name": "approved",
          "type": "address"
        },
        {
          "indexed": true,
          "internalType": "uint256",
          "name": "tokenId",
          "type": "uint256"
        }
      ],
      "name": "Approval",
      "type": "event"
    },
    {
      "anonymous": false,
      "inputs": [
        {
          "indexed": true,
          "internalType": "address",
          "name": "owner",
          "type": "address"
        },
        {
          "indexed": true,
          "internalType": "address",
          "name": "operator",
          "type": "address"
        },
        {
          "indexed": false,
          "internalType": "bool",
          "name": "approved",
          "type": "bool"
        }
      ],
      "name": "ApprovalForAll",
      "type": "event"
    },
    {
      "anonymous": false,
      "inputs": [
        {
          "indexed": true,
          "internalType": "address",
          "name": "from",
          "type": "address"
        },
        {
          "indexed": true,
          "internalType": "address",
          "name": "to",
          "type": "address"
        },
        {
          "indexed": true,
          "internalType": "uint256",
          "name": "tokenId",
          "type": "uint256"
        }
      ],
      "name": "Transfer",
      "type": "event"
    },
    {
      "inputs": [
        {
          "internalType": "address",
          "name": "to",
          "type": "address"
        },
        {
          "internalType": "uint256",
          "name": "tokenId",
          "type": "uint256"
        }
      ],
      "name": "approve",
      "outputs": [],
      "stateMutability": "nonpayable",
      "type": "function"
    },
    {
      "inputs": [
        {
          "internalType": "address",
          "name": "owner",
          "type": "address"
        }
      ],
      "name": "balanceOf",
      "outputs": [
        {
          "internalType": "uint256",
          "name": "",
          "type": "uint256"
        }
      ],
      "stateMutability": "view",
      "type": "function"
    },
    {
      "inputs": [
        {
          "internalType": "uint256",
          "name": "tokenId",
          "type": "uint256"
        }
      ],
      "name": "getApproved",
      "outputs": [
        {
          "internalType": "address",
          "name": "",
          "type": "address"
        }
      ],
      "stateMutability": "view",
      "type": "function"
    },
    {
      "inputs": [
        {
          "internalType": "address",
          "name": "owner",
          "type": "address"
        },
        {
          "internalType": "address",
          "name": "operator",
          "type": "address"
        }
      ],
      "name": "isApprovedForAll",
      "outputs": [
        {
          "internalType": "bool",
          "name": "",
          "type": "bool"
        }
      ],
      "stateMutability": "view",
      "type": "function"
    },
    {
      "inputs": [],
      "name": "name",
      "outputs": [
        {
          "internalType": "string",
          "name": "",
          "type": "string"
        }
      ],
      "stateMutability": "view",
      "type": "function"
    },
    {
      "inputs": [],
      "name": "nftCreator",
      "outputs": [
        {
          "internalType": "address",
          "name": "",
          "type": "address"
        }
      ],
      "stateMutability": "view",
      "type": "function"
    },
    {
      "inputs": [],
      "name": "nftTokenCounter",
      "outputs": [
        {
          "internalType": "uint256",
          "name": "",
          "type": "uint256"
        }
      ],
      "stateMutability": "view",
      "type": "function"
    },
    {
      "inputs": [
        {
          "internalType": "uint256",
          "name": "tokenId",
          "type": "uint256"
        }
      ],
      "name": "ownerOf",
      "outputs": [
        {
          "internalType": "address",
          "name": "",
          "type": "address"
        }
      ],
      "stateMutability": "view",
      "type": "function"
    },
    {
      "inputs": [
        {
          "internalType": "address",
          "name": "from",
          "type": "address"
        },
        {
          "internalType": "address",
          "name": "to",
          "type": "address"
        },
        {
          "internalType": "uint256",
          "name": "tokenId",
          "type": "uint256"
        }
      ],
      "name": "safeTransferFrom",
      "outputs": [],
      "stateMutability": "nonpayable",
      "type": "function"
    },
    {
      "inputs": [
        {
          "internalType": "address",
          "name": "from",
          "type": "address"
        },
        {
          "internalType": "address",
          "name": "to",
          "type": "address"
        },
        {
          "internalType": "uint256",
          "name": "tokenId",
          "type": "uint256"
        },
        {
          "internalType": "bytes",
          "name": "_data",
          "type": "bytes"
        }
      ],
      "name": "safeTransferFrom",
      "outputs": [],
      "stateMutability": "nonpayable",
      "type": "function"
    },
    {
      "inputs": [
        {
          "internalType": "address",
          "name": "operator",
          "type": "address"
        },
        {
          "internalType": "bool",
          "name": "approved",
          "type": "bool"
        }
      ],
      "name": "setApprovalForAll",
      "outputs": [],
      "stateMutability": "nonpayable",
      "type": "function"
    },
    {
      "inputs": [
        {
          "internalType": "bytes4",
          "name": "interfaceId",
          "type": "bytes4"
        }
      ],
      "name": "supportsInterface",
      "outputs": [
        {
          "internalType": "bool",
          "name": "",
          "type": "bool"
        }
      ],
      "stateMutability": "view",
      "type": "function"
    },
    {
      "inputs": [],
      "name": "symbol",
      "outputs": [
        {
          "internalType": "string",
          "name": "",
          "type": "string"
        }
      ],
      "stateMutability": "view",
      "type": "function"
    },
    {
      "inputs": [
        {
          "internalType": "uint256",
          "name": "tokenId",
          "type": "uint256"
        }
      ],
      "name": "tokenURI",
      "outputs": [
        {
          "internalType": "string",
          "name": "",
          "type": "string"
        }
      ],
      "stateMutability": "view",
      "type": "function"
    },
    {
      "inputs": [
        {
          "internalType": "address",
          "name": "from",
          "type": "address"
        },
        {
          "internalType": "address",
          "name": "to",
          "type": "address"
        },
        {
          "internalType": "uint256",
          "name": "tokenId",
          "type": "uint256"
        }
      ],
      "name": "transferFrom",
      "outputs": [],
      "stateMutability": "nonpayable",
      "type": "function"
    },
    {
      "inputs": [
        {
          "internalType": "address",
          "name": "_toAddress",
          "type": "address"
        },
        {
          "internalType": "string",
          "name": "_tokenURI",
          "type": "string"
        }
      ],
      "name": "createMint",
      "outputs": [],
      "stateMutability": "nonpayable",
      "type": "function"
    }
  ],
  "bytecode": "0x60806040523480156200001157600080fd5b506040518060400160405280600e81526020017f4775726b6172616e2773204e46540000000000000000000000000000000000008152506040518060400160405280600381526020017f4e4654000000000000000000000000000000000000000000000000000000000081525081600090805190602001906200009692919062000101565b508060019080519060200190620000af92919062000101565b505050600060078190555033600860006101000a81548173ffffffffffffffffffffffffffffffffffffffff021916908373ffffffffffffffffffffffffffffffffffffffff16021790555062000216565b8280546200010f90620001b1565b90600052602060002090601f0160209004810192826200013357600085556200017f565b82601f106200014e57805160ff19168380011785556200017f565b828001600101855582156200017f579182015b828111156200017e57825182559160200191906001019062000161565b5b5090506200018e919062000192565b5090565b5b80821115620001ad57600081600090555060010162000193565b5090565b60006002820490506001821680620001ca57607f821691505b60208210811415620001e157620001e0620001e7565b5b50919050565b7f4e487b7100000000000000000000000000000000000000000000000000000000600052602260045260246000fd5b612cc080620002266000396000f3fe608060405234801561001057600080fd5b50600436106101005760003560e01c80636352211e11610097578063a22cb46511610066578063a22cb465146102ad578063b88d4fde146102c9578063c87b56dd146102e5578063e985e9c51461031557610100565b80636352211e1461021357806370a082311461024357806377cfbe591461027357806395d89b411461028f57610100565b806323b872dd116100d357806323b872dd1461019f57806342842e0e146101bb5780634b7a764b146101d75780635c170fd2146101f557610100565b806301ffc9a71461010557806306fdde0314610135578063081812fc14610153578063095ea7b314610183575b600080fd5b61011f600480360381019061011a9190611d45565b610345565b60405161012c9190612157565b60405180910390f35b61013d610427565b60405161014a9190612172565b60405180910390f35b61016d60048036038101906101689190611d9f565b6104b9565b60405161017a91906120f0565b60405180910390f35b61019d60048036038101906101989190611d05565b61053e565b005b6101b960048036038101906101b49190611b8f565b610656565b005b6101d560048036038101906101d09190611b8f565b6106b6565b005b6101df6106d6565b6040516101ec9190612394565b60405180910390f35b6101fd6106dc565b60405161020a91906120f0565b60405180910390f35b61022d60048036038101906102289190611d9f565b610702565b60405161023a91906120f0565b60405180910390f35b61025d60048036038101906102589190611b22565b6107b4565b60405161026a9190612394565b60405180910390f35b61028d60048036038101906102889190611ca5565b61086c565b005b61029761093f565b6040516102a49190612172565b60405180910390f35b6102c760048036038101906102c29190611c65565b6109d1565b005b6102e360048036038101906102de9190611be2565b610b52565b005b6102ff60048036038101906102fa9190611d9f565b610bb4565b60405161030c9190612172565b60405180910390f35b61032f600480360381019061032a9190611b4f565b610d06565b60405161033c9190612157565b60405180910390f35b60007f80ac58cd000000000000000000000000000000000000000000000000000000007bffffffffffffffffffffffffffffffffffffffffffffffffffffffff1916827bffffffffffffffffffffffffffffffffffffffffffffffffffffffff1916148061041057507f5b5e139f000000000000000000000000000000000000000000000000000000007bffffffffffffffffffffffffffffffffffffffffffffffffffffffff1916827bffffffffffffffffffffffffffffffffffffffffffffffffffffffff1916145b80610420575061041f82610d9a565b5b9050919050565b606060008054610436906125b9565b80601f0160208091040260200160405190810160405280929190818152602001828054610462906125b9565b80156104af5780601f10610484576101008083540402835291602001916104af565b820191906000526020600020905b81548152906001019060200180831161049257829003601f168201915b5050505050905090565b60006104c482610e04565b610503576040517f08c379a00000000000000000000000000000000000000000000000000000000081526004016104fa906122f4565b60405180910390fd5b6004600083815260200190815260200160002060009054906101000a900473ffffffffffffffffffffffffffffffffffffffff169050919050565b600061054982610702565b90508073ffffffffffffffffffffffffffffffffffffffff168373ffffffffffffffffffffffffffffffffffffffff1614156105ba576040517f08c379a00000000000000000000000000000000000000000000000000000000081526004016105b190612354565b60405180910390fd5b8073ffffffffffffffffffffffffffffffffffffffff166105d9610e70565b73ffffffffffffffffffffffffffffffffffffffff161480610608575061060781610602610e70565b610d06565b5b610647576040517f08c379a000000000000000000000000000000000000000000000000000000000815260040161063e90612234565b60405180910390fd5b6106518383610e78565b505050565b610667610661610e70565b82610f31565b6106a6576040517f08c379a000000000000000000000000000000000000000000000000000000000815260040161069d90612374565b60405180910390fd5b6106b183838361100f565b505050565b6106d183838360405180602001604052806000815250610b52565b505050565b60075481565b600860009054906101000a900473ffffffffffffffffffffffffffffffffffffffff1681565b6000806002600084815260200190815260200160002060009054906101000a900473ffffffffffffffffffffffffffffffffffffffff169050600073ffffffffffffffffffffffffffffffffffffffff168173ffffffffffffffffffffffffffffffffffffffff1614156107ab576040517f08c379a00000000000000000000000000000000000000000000000000000000081526004016107a290612274565b60405180910390fd5b80915050919050565b60008073ffffffffffffffffffffffffffffffffffffffff168273ffffffffffffffffffffffffffffffffffffffff161415610825576040517f08c379a000000000000000000000000000000000000000000000000000000000815260040161081c90612254565b60405180910390fd5b600360008373ffffffffffffffffffffffffffffffffffffffff1673ffffffffffffffffffffffffffffffffffffffff168152602001908152602001600020549050919050565b600860009054906101000a900473ffffffffffffffffffffffffffffffffffffffff1673ffffffffffffffffffffffffffffffffffffffff163373ffffffffffffffffffffffffffffffffffffffff16146108c657600080fd5b6108d28360075461126b565b61092260075483838080601f016020809104026020016040519081016040528093929190818152602001838380828437600081840152601f19601f82011690508083019250505050505050611289565b600760008154809291906109359061261c565b9190505550505050565b60606001805461094e906125b9565b80601f016020809104026020016040519081016040528092919081815260200182805461097a906125b9565b80156109c75780601f1061099c576101008083540402835291602001916109c7565b820191906000526020600020905b8154815290600101906020018083116109aa57829003601f168201915b5050505050905090565b6109d9610e70565b73ffffffffffffffffffffffffffffffffffffffff168273ffffffffffffffffffffffffffffffffffffffff161415610a47576040517f08c379a0000000000000000000000000000000000000000000000000000000008152600401610a3e906121f4565b60405180910390fd5b8060056000610a54610e70565b73ffffffffffffffffffffffffffffffffffffffff1673ffffffffffffffffffffffffffffffffffffffff16815260200190815260200160002060008473ffffffffffffffffffffffffffffffffffffffff1673ffffffffffffffffffffffffffffffffffffffff16815260200190815260200160002060006101000a81548160ff0219169083151502179055508173ffffffffffffffffffffffffffffffffffffffff16610b01610e70565b73ffffffffffffffffffffffffffffffffffffffff167f17307eab39ab6107e8899845ad3d59bd9653f200f220920489ca2b5937696c3183604051610b469190612157565b60405180910390a35050565b610b63610b5d610e70565b83610f31565b610ba2576040517f08c379a0000000000000000000000000000000000000000000000000000000008152600401610b9990612374565b60405180910390fd5b610bae848484846112fd565b50505050565b6060610bbf82610e04565b610bfe576040517f08c379a0000000000000000000000000000000000000000000000000000000008152600401610bf5906122d4565b60405180910390fd5b6000600660008481526020019081526020016000208054610c1e906125b9565b80601f0160208091040260200160405190810160405280929190818152602001828054610c4a906125b9565b8015610c975780601f10610c6c57610100808354040283529160200191610c97565b820191906000526020600020905b815481529060010190602001808311610c7a57829003601f168201915b505050505090506000610ca8611359565b9050600081511415610cbe578192505050610d01565b600082511115610cf3578082604051602001610cdb9291906120cc565b60405160208183030381529060405292505050610d01565b610cfc84611370565b925050505b919050565b6000600560008473ffffffffffffffffffffffffffffffffffffffff1673ffffffffffffffffffffffffffffffffffffffff16815260200190815260200160002060008373ffffffffffffffffffffffffffffffffffffffff1673ffffffffffffffffffffffffffffffffffffffff16815260200190815260200160002060009054906101000a900460ff16905092915050565b60007f01ffc9a7000000000000000000000000000000000000000000000000000000007bffffffffffffffffffffffffffffffffffffffffffffffffffffffff1916827bffffffffffffffffffffffffffffffffffffffffffffffffffffffff1916149050919050565b60008073ffffffffffffffffffffffffffffffffffffffff166002600084815260200190815260200160002060009054906101000a900473ffffffffffffffffffffffffffffffffffffffff1673ffffffffffffffffffffffffffffffffffffffff1614159050919050565b600033905090565b816004600083815260200190815260200160002060006101000a81548173ffffffffffffffffffffffffffffffffffffffff021916908373ffffffffffffffffffffffffffffffffffffffff160217905550808273ffffffffffffffffffffffffffffffffffffffff16610eeb83610702565b73ffffffffffffffffffffffffffffffffffffffff167f8c5be1e5ebec7d5bd14f71427d1e84f3dd0314c0f7b2291e5b200ac8c7c3b92560405160405180910390a45050565b6000610f3c82610e04565b610f7b576040517f08c379a0000000000000000000000000000000000000000000000000000000008152600401610f7290612214565b60405180910390fd5b6000610f8683610702565b90508073ffffffffffffffffffffffffffffffffffffffff168473ffffffffffffffffffffffffffffffffffffffff161480610ff557508373ffffffffffffffffffffffffffffffffffffffff16610fdd846104b9565b73ffffffffffffffffffffffffffffffffffffffff16145b8061100657506110058185610d06565b5b91505092915050565b8273ffffffffffffffffffffffffffffffffffffffff1661102f82610702565b73ffffffffffffffffffffffffffffffffffffffff1614611085576040517f08c379a000000000000000000000000000000000000000000000000000000000815260040161107c90612314565b60405180910390fd5b600073ffffffffffffffffffffffffffffffffffffffff168273ffffffffffffffffffffffffffffffffffffffff1614156110f5576040517f08c379a00000000000000000000000000000000000000000000000000000000081526004016110ec906121d4565b60405180910390fd5b611100838383611417565b61110b600082610e78565b6001600360008573ffffffffffffffffffffffffffffffffffffffff1673ffffffffffffffffffffffffffffffffffffffff168152602001908152602001600020600082825461115b91906124cf565b925050819055506001600360008473ffffffffffffffffffffffffffffffffffffffff1673ffffffffffffffffffffffffffffffffffffffff16815260200190815260200160002060008282546111b29190612448565b92505081905550816002600083815260200190815260200160002060006101000a81548173ffffffffffffffffffffffffffffffffffffffff021916908373ffffffffffffffffffffffffffffffffffffffff160217905550808273ffffffffffffffffffffffffffffffffffffffff168473ffffffffffffffffffffffffffffffffffffffff167fddf252ad1be2c89b69c2b068fc378daa952ba7f163c4a11628f55a4df523b3ef60405160405180910390a4505050565b61128582826040518060200160405280600081525061141c565b5050565b61129282610e04565b6112d1576040517f08c379a00000000000000000000000000000000000000000000000000000000081526004016112c890612294565b60405180910390fd5b806006600084815260200190815260200160002090805190602001906112f8929190611950565b505050565b61130884848461100f565b61131484848484611477565b611353576040517f08c379a000000000000000000000000000000000000000000000000000000000815260040161134a90612194565b60405180910390fd5b50505050565b606060405180602001604052806000815250905090565b606061137b82610e04565b6113ba576040517f08c379a00000000000000000000000000000000000000000000000000000000081526004016113b190612334565b60405180910390fd5b60006113c4611359565b905060008151116113e4576040518060200160405280600081525061140f565b806113ee8461160e565b6040516020016113ff9291906120cc565b6040516020818303038152906040525b915050919050565b505050565b611426838361176f565b6114336000848484611477565b611472576040517f08c379a000000000000000000000000000000000000000000000000000000000815260040161146990612194565b60405180910390fd5b505050565b60006114988473ffffffffffffffffffffffffffffffffffffffff1661193d565b15611601578373ffffffffffffffffffffffffffffffffffffffff1663150b7a026114c1610e70565b8786866040518563ffffffff1660e01b81526004016114e3949392919061210b565b602060405180830381600087803b1580156114fd57600080fd5b505af192505050801561152e57506040513d601f19601f8201168201806040525081019061152b9190611d72565b60015b6115b1573d806000811461155e576040519150601f19603f3d011682016040523d82523d6000602084013e611563565b606091505b506000815114156115a9576040517f08c379a00000000000000000000000000000000000000000000000000000000081526004016115a090612194565b60405180910390fd5b805181602001fd5b63150b7a0260e01b7bffffffffffffffffffffffffffffffffffffffffffffffffffffffff1916817bffffffffffffffffffffffffffffffffffffffffffffffffffffffff191614915050611606565b600190505b949350505050565b60606000821415611656576040518060400160405280600181526020017f3000000000000000000000000000000000000000000000000000000000000000815250905061176a565b600082905060005b600082146116885780806116719061261c565b915050600a82611681919061249e565b915061165e565b60008167ffffffffffffffff8111156116a4576116a3612752565b5b6040519080825280601f01601f1916602001820160405280156116d65781602001600182028036833780820191505090505b5090505b60008514611763576001826116ef91906124cf565b9150600a856116fe9190612665565b603061170a9190612448565b60f81b8183815181106117205761171f612723565b5b60200101907effffffffffffffffffffffffffffffffffffffffffffffffffffffffffffff1916908160001a905350600a8561175c919061249e565b94506116da565b8093505050505b919050565b600073ffffffffffffffffffffffffffffffffffffffff168273ffffffffffffffffffffffffffffffffffffffff1614156117df576040517f08c379a00000000000000000000000000000000000000000000000000000000081526004016117d6906122b4565b60405180910390fd5b6117e881610e04565b15611828576040517f08c379a000000000000000000000000000000000000000000000000000000000815260040161181f906121b4565b60405180910390fd5b61183460008383611417565b6001600360008473ffffffffffffffffffffffffffffffffffffffff1673ffffffffffffffffffffffffffffffffffffffff16815260200190815260200160002060008282546118849190612448565b92505081905550816002600083815260200190815260200160002060006101000a81548173ffffffffffffffffffffffffffffffffffffffff021916908373ffffffffffffffffffffffffffffffffffffffff160217905550808273ffffffffffffffffffffffffffffffffffffffff16600073ffffffffffffffffffffffffffffffffffffffff167fddf252ad1be2c89b69c2b068fc378daa952ba7f163c4a11628f55a4df523b3ef60405160405180910390a45050565b600080823b905060008111915050919050565b82805461195c906125b9565b90600052602060002090601f01602090048101928261197e57600085556119c5565b82601f1061199757805160ff19168380011785556119c5565b828001600101855582156119c5579182015b828111156119c45782518255916020019190600101906119a9565b5b5090506119d291906119d6565b5090565b5b808211156119ef5760008160009055506001016119d7565b5090565b6000611a06611a01846123d4565b6123af565b905082815260208101848484011115611a2257611a21612790565b5b611a2d848285612577565b509392505050565b600081359050611a4481612c2e565b92915050565b600081359050611a5981612c45565b92915050565b600081359050611a6e81612c5c565b92915050565b600081519050611a8381612c5c565b92915050565b600082601f830112611a9e57611a9d612786565b5b8135611aae8482602086016119f3565b91505092915050565b60008083601f840112611acd57611acc612786565b5b8235905067ffffffffffffffff811115611aea57611ae9612781565b5b602083019150836001820283011115611b0657611b0561278b565b5b9250929050565b600081359050611b1c81612c73565b92915050565b600060208284031215611b3857611b3761279a565b5b6000611b4684828501611a35565b91505092915050565b60008060408385031215611b6657611b6561279a565b5b6000611b7485828601611a35565b9250506020611b8585828601611a35565b9150509250929050565b600080600060608486031215611ba857611ba761279a565b5b6000611bb686828701611a35565b9350506020611bc786828701611a35565b9250506040611bd886828701611b0d565b9150509250925092565b60008060008060808587031215611bfc57611bfb61279a565b5b6000611c0a87828801611a35565b9450506020611c1b87828801611a35565b9350506040611c2c87828801611b0d565b925050606085013567ffffffffffffffff811115611c4d57611c4c612795565b5b611c5987828801611a89565b91505092959194509250565b60008060408385031215611c7c57611c7b61279a565b5b6000611c8a85828601611a35565b9250506020611c9b85828601611a4a565b9150509250929050565b600080600060408486031215611cbe57611cbd61279a565b5b6000611ccc86828701611a35565b935050602084013567ffffffffffffffff811115611ced57611cec612795565b5b611cf986828701611ab7565b92509250509250925092565b60008060408385031215611d1c57611d1b61279a565b5b6000611d2a85828601611a35565b9250506020611d3b85828601611b0d565b9150509250929050565b600060208284031215611d5b57611d5a61279a565b5b6000611d6984828501611a5f565b91505092915050565b600060208284031215611d8857611d8761279a565b5b6000611d9684828501611a74565b91505092915050565b600060208284031215611db557611db461279a565b5b6000611dc384828501611b0d565b91505092915050565b611dd581612503565b82525050565b611de481612515565b82525050565b6000611df582612405565b611dff818561241b565b9350611e0f818560208601612586565b611e188161279f565b840191505092915050565b6000611e2e82612410565b611e38818561242c565b9350611e48818560208601612586565b611e518161279f565b840191505092915050565b6000611e6782612410565b611e71818561243d565b9350611e81818560208601612586565b80840191505092915050565b6000611e9a60328361242c565b9150611ea5826127b0565b604082019050919050565b6000611ebd601c8361242c565b9150611ec8826127ff565b602082019050919050565b6000611ee060248361242c565b9150611eeb82612828565b604082019050919050565b6000611f0360198361242c565b9150611f0e82612877565b602082019050919050565b6000611f26602c8361242c565b9150611f31826128a0565b604082019050919050565b6000611f4960388361242c565b9150611f54826128ef565b604082019050919050565b6000611f6c602a8361242c565b9150611f778261293e565b604082019050919050565b6000611f8f60298361242c565b9150611f9a8261298d565b604082019050919050565b6000611fb2602e8361242c565b9150611fbd826129dc565b604082019050919050565b6000611fd560208361242c565b9150611fe082612a2b565b602082019050919050565b6000611ff860318361242c565b915061200382612a54565b604082019050919050565b600061201b602c8361242c565b915061202682612aa3565b604082019050919050565b600061203e60298361242c565b915061204982612af2565b604082019050919050565b6000612061602f8361242c565b915061206c82612b41565b604082019050919050565b600061208460218361242c565b915061208f82612b90565b604082019050919050565b60006120a760318361242c565b91506120b282612bdf565b604082019050919050565b6120c68161256d565b82525050565b60006120d88285611e5c565b91506120e48284611e5c565b91508190509392505050565b60006020820190506121056000830184611dcc565b92915050565b60006080820190506121206000830187611dcc565b61212d6020830186611dcc565b61213a60408301856120bd565b818103606083015261214c8184611dea565b905095945050505050565b600060208201905061216c6000830184611ddb565b92915050565b6000602082019050818103600083015261218c8184611e23565b905092915050565b600060208201905081810360008301526121ad81611e8d565b9050919050565b600060208201905081810360008301526121cd81611eb0565b9050919050565b600060208201905081810360008301526121ed81611ed3565b9050919050565b6000602082019050818103600083015261220d81611ef6565b9050919050565b6000602082019050818103600083015261222d81611f19565b9050919050565b6000602082019050818103600083015261224d81611f3c565b9050919050565b6000602082019050818103600083015261226d81611f5f565b9050919050565b6000602082019050818103600083015261228d81611f82565b9050919050565b600060208201905081810360008301526122ad81611fa5565b9050919050565b600060208201905081810360008301526122cd81611fc8565b9050919050565b600060208201905081810360008301526122ed81611feb565b9050919050565b6000602082019050818103600083015261230d8161200e565b9050919050565b6000602082019050818103600083015261232d81612031565b9050919050565b6000602082019050818103600083015261234d81612054565b9050919050565b6000602082019050818103600083015261236d81612077565b9050919050565b6000602082019050818103600083015261238d8161209a565b9050919050565b60006020820190506123a960008301846120bd565b92915050565b60006123b96123ca565b90506123c582826125eb565b919050565b6000604051905090565b600067ffffffffffffffff8211156123ef576123ee612752565b5b6123f88261279f565b9050602081019050919050565b600081519050919050565b600081519050919050565b600082825260208201905092915050565b600082825260208201905092915050565b600081905092915050565b60006124538261256d565b915061245e8361256d565b9250827fffffffffffffffffffffffffffffffffffffffffffffffffffffffffffffffff0382111561249357612492612696565b5b828201905092915050565b60006124a98261256d565b91506124b48361256d565b9250826124c4576124c36126c5565b5b828204905092915050565b60006124da8261256d565b91506124e58361256d565b9250828210156124f8576124f7612696565b5b828203905092915050565b600061250e8261254d565b9050919050565b60008115159050919050565b60007fffffffff0000000000000000000000000000000000000000000000000000000082169050919050565b600073ffffffffffffffffffffffffffffffffffffffff82169050919050565b6000819050919050565b82818337600083830152505050565b60005b838110156125a4578082015181840152602081019050612589565b838111156125b3576000848401525b50505050565b600060028204905060018216806125d157607f821691505b602082108114156125e5576125e46126f4565b5b50919050565b6125f48261279f565b810181811067ffffffffffffffff8211171561261357612612612752565b5b80604052505050565b60006126278261256d565b91507fffffffffffffffffffffffffffffffffffffffffffffffffffffffffffffffff82141561265a57612659612696565b5b600182019050919050565b60006126708261256d565b915061267b8361256d565b92508261268b5761268a6126c5565b5b828206905092915050565b7f4e487b7100000000000000000000000000000000000000000000000000000000600052601160045260246000fd5b7f4e487b7100000000000000000000000000000000000000000000000000000000600052601260045260246000fd5b7f4e487b7100000000000000000000000000000000000000000000000000000000600052602260045260246000fd5b7f4e487b7100000000000000000000000000000000000000000000000000000000600052603260045260246000fd5b7f4e487b7100000000000000000000000000000000000000000000000000000000600052604160045260246000fd5b600080fd5b600080fd5b600080fd5b600080fd5b600080fd5b600080fd5b6000601f19601f8301169050919050565b7f4552433732313a207472616e7366657220746f206e6f6e20455243373231526560008201527f63656976657220696d706c656d656e7465720000000000000000000000000000602082015250565b7f4552433732313a20746f6b656e20616c7265616479206d696e74656400000000600082015250565b7f4552433732313a207472616e7366657220746f20746865207a65726f2061646460008201527f7265737300000000000000000000000000000000000000000000000000000000602082015250565b7f4552433732313a20617070726f766520746f2063616c6c657200000000000000600082015250565b7f4552433732313a206f70657261746f7220717565727920666f72206e6f6e657860008201527f697374656e7420746f6b656e0000000000000000000000000000000000000000602082015250565b7f4552433732313a20617070726f76652063616c6c6572206973206e6f74206f7760008201527f6e6572206e6f7220617070726f76656420666f7220616c6c0000000000000000602082015250565b7f4552433732313a2062616c616e636520717565727920666f7220746865207a6560008201527f726f206164647265737300000000000000000000000000000000000000000000602082015250565b7f4552433732313a206f776e657220717565727920666f72206e6f6e657869737460008201527f656e7420746f6b656e0000000000000000000000000000000000000000000000602082015250565b7f45524337323155524953746f726167653a2055524920736574206f66206e6f6e60008201527f6578697374656e7420746f6b656e000000000000000000000000000000000000602082015250565b7f4552433732313a206d696e7420746f20746865207a65726f2061646472657373600082015250565b7f45524337323155524953746f726167653a2055524920717565727920666f722060008201527f6e6f6e6578697374656e7420746f6b656e000000000000000000000000000000602082015250565b7f4552433732313a20617070726f76656420717565727920666f72206e6f6e657860008201527f697374656e7420746f6b656e0000000000000000000000000000000000000000602082015250565b7f4552433732313a207472616e73666572206f6620746f6b656e2074686174206960008201527f73206e6f74206f776e0000000000000000000000000000000000000000000000602082015250565b7f4552433732314d657461646174613a2055524920717565727920666f72206e6f60008201527f6e6578697374656e7420746f6b656e0000000000000000000000000000000000602082015250565b7f4552433732313a20617070726f76616c20746f2063757272656e74206f776e6560008201527f7200000000000000000000000000000000000000000000000000000000000000602082015250565b7f4552433732313a207472616e736665722063616c6c6572206973206e6f74206f60008201527f776e6572206e6f7220617070726f766564000000000000000000000000000000602082015250565b612c3781612503565b8114612c4257600080fd5b50565b612c4e81612515565b8114612c5957600080fd5b50565b612c6581612521565b8114612c7057600080fd5b50565b612c7c8161256d565b8114612c8757600080fd5b5056fea26469706673582212206b2fee3b7c3b6ccf9e6729844ea6a34e64da62fd38d14d6133a6992c14e88d5f64736f6c63430008060033",
  "immutableReferences": {},
  "source": "// SPDX-License-Identifier: MIT\npragma solidity ^0.8.6;\n\nimport \"@openzeppelin/contracts/token/ERC721/ERC721.sol\";\nimport \"@openzeppelin/contracts/token/ERC721/extensions/ERC721URIStorage.sol\";\n \ncontract NonFungibleToken is ERC721URIStorage {\n \n  uint256 public nftTokenCounter;\n  address public nftCreator;\n\n  constructor () public ERC721 (\"Gurkaran's NFT\", \"NFT\"){\n    nftTokenCounter = 0;\n    nftCreator = msg.sender;\n  }\n\n  function createMint(address _toAddress, string calldata _tokenURI) external {\n    require(msg.sender == nftCreator);\n    _safeMint(_toAddress, nftTokenCounter);\n    _setTokenURI(nftTokenCounter, _tokenURI);\n    nftTokenCounter ++;\n  }\n\n \n}",
  "sourcePath": "/Users/karan/Desktop/Project Folder/react-blockchain-project/contracts/NonFungibleToken.sol",
  "compiler": {
    "name": "solc",
    "version": "0.8.6+commit.11564f7e.Emscripten.clang"
  },
  "schemaVersion": "3.4.1",
  "updatedAt": "2021-09-07T08:52:22.533Z",
  "devdoc": {
    "kind": "dev",
    "methods": {
      "approve(address,uint256)": {
        "details": "See {IERC721-approve}."
      },
      "balanceOf(address)": {
        "details": "See {IERC721-balanceOf}."
      },
      "getApproved(uint256)": {
        "details": "See {IERC721-getApproved}."
      },
      "isApprovedForAll(address,address)": {
        "details": "See {IERC721-isApprovedForAll}."
      },
      "name()": {
        "details": "See {IERC721Metadata-name}."
      },
      "ownerOf(uint256)": {
        "details": "See {IERC721-ownerOf}."
      },
      "safeTransferFrom(address,address,uint256)": {
        "details": "See {IERC721-safeTransferFrom}."
      },
      "safeTransferFrom(address,address,uint256,bytes)": {
        "details": "See {IERC721-safeTransferFrom}."
      },
      "setApprovalForAll(address,bool)": {
        "details": "See {IERC721-setApprovalForAll}."
      },
      "supportsInterface(bytes4)": {
        "details": "See {IERC165-supportsInterface}."
      },
      "symbol()": {
        "details": "See {IERC721Metadata-symbol}."
      },
      "tokenURI(uint256)": {
        "details": "See {IERC721Metadata-tokenURI}."
      },
      "transferFrom(address,address,uint256)": {
        "details": "See {IERC721-transferFrom}."
      }
    },
    "version": 1
  },
  "userdoc": {
    "kind": "user",
    "methods": {},
    "version": 1
  }
}